{
  "contractName": "BNBFactor",
  "abi": [
    {
      "inputs": [
        {
          "internalType": "address payable",
          "name": "wallet",
          "type": "address"
        }
      ],
      "stateMutability": "nonpayable",
      "type": "constructor"
    },
    {
      "anonymous": false,
      "inputs": [
        {
          "indexed": true,
          "internalType": "address",
          "name": "user",
          "type": "address"
        },
        {
          "indexed": false,
          "internalType": "uint256",
          "name": "totalAmount",
          "type": "uint256"
        }
      ],
      "name": "FeePayed",
      "type": "event"
    },
    {
      "anonymous": false,
      "inputs": [
        {
          "indexed": true,
          "internalType": "address",
          "name": "user",
          "type": "address"
        },
        {
          "indexed": false,
          "internalType": "uint8",
          "name": "plan",
          "type": "uint8"
        },
        {
          "indexed": false,
          "internalType": "uint256",
          "name": "amount",
          "type": "uint256"
        }
      ],
      "name": "NewDeposit",
      "type": "event"
    },
    {
      "anonymous": false,
      "inputs": [
        {
          "indexed": false,
          "internalType": "address",
          "name": "user",
          "type": "address"
        }
      ],
      "name": "Newbie",
      "type": "event"
    },
    {
      "anonymous": false,
      "inputs": [
        {
          "indexed": true,
          "internalType": "address",
          "name": "referrer",
          "type": "address"
        },
        {
          "indexed": true,
          "internalType": "address",
          "name": "referral",
          "type": "address"
        },
        {
          "indexed": true,
          "internalType": "uint256",
          "name": "level",
          "type": "uint256"
        },
        {
          "indexed": false,
          "internalType": "uint256",
          "name": "amount",
          "type": "uint256"
        }
      ],
      "name": "RefBonus",
      "type": "event"
    },
    {
      "anonymous": false,
      "inputs": [
        {
          "indexed": true,
          "internalType": "address",
          "name": "user",
          "type": "address"
        },
        {
          "indexed": false,
          "internalType": "uint256",
          "name": "amount",
          "type": "uint256"
        }
      ],
      "name": "Withdrawn",
      "type": "event"
    },
    {
      "inputs": [],
      "name": "INVEST_MIN_AMOUNT",
      "outputs": [
        {
          "internalType": "uint256",
          "name": "",
          "type": "uint256"
        }
      ],
      "stateMutability": "view",
      "type": "function"
    },
    {
      "inputs": [],
      "name": "PERCENTS_DIVIDER",
      "outputs": [
        {
          "internalType": "uint256",
          "name": "",
          "type": "uint256"
        }
      ],
      "stateMutability": "view",
      "type": "function"
    },
    {
      "inputs": [],
      "name": "PERCENT_STEP",
      "outputs": [
        {
          "internalType": "uint256",
          "name": "",
          "type": "uint256"
        }
      ],
      "stateMutability": "view",
      "type": "function"
    },
    {
      "inputs": [],
      "name": "PROJECT_FEE",
      "outputs": [
        {
          "internalType": "uint256",
          "name": "",
          "type": "uint256"
        }
      ],
      "stateMutability": "view",
      "type": "function"
    },
    {
      "inputs": [
        {
          "internalType": "uint256",
          "name": "",
          "type": "uint256"
        }
      ],
      "name": "REFERRAL_PERCENTS",
      "outputs": [
        {
          "internalType": "uint256",
          "name": "",
          "type": "uint256"
        }
      ],
      "stateMutability": "view",
      "type": "function"
    },
    {
      "inputs": [],
      "name": "TIME_STEP",
      "outputs": [
        {
          "internalType": "uint256",
          "name": "",
          "type": "uint256"
        }
      ],
      "stateMutability": "view",
      "type": "function"
    },
    {
      "inputs": [],
      "name": "commissionWallet",
      "outputs": [
        {
          "internalType": "address payable",
          "name": "",
          "type": "address"
        }
      ],
      "stateMutability": "view",
      "type": "function"
    },
    {
      "inputs": [],
      "name": "started",
      "outputs": [
        {
          "internalType": "bool",
          "name": "",
          "type": "bool"
        }
      ],
      "stateMutability": "view",
      "type": "function"
    },
    {
      "inputs": [],
      "name": "totalInvested",
      "outputs": [
        {
          "internalType": "uint256",
          "name": "",
          "type": "uint256"
        }
      ],
      "stateMutability": "view",
      "type": "function"
    },
    {
      "inputs": [],
      "name": "totalRefBonus",
      "outputs": [
        {
          "internalType": "uint256",
          "name": "",
          "type": "uint256"
        }
      ],
      "stateMutability": "view",
      "type": "function"
    },
    {
      "inputs": [
        {
          "internalType": "address",
          "name": "referrer",
          "type": "address"
        },
        {
          "internalType": "uint8",
          "name": "plan",
          "type": "uint8"
        }
      ],
      "name": "invest",
      "outputs": [],
      "stateMutability": "payable",
      "type": "function"
    },
    {
      "inputs": [],
      "name": "withdraw",
      "outputs": [],
      "stateMutability": "nonpayable",
      "type": "function"
    },
    {
      "inputs": [],
      "name": "getContractBalance",
      "outputs": [
        {
          "internalType": "uint256",
          "name": "",
          "type": "uint256"
        }
      ],
      "stateMutability": "view",
      "type": "function"
    },
    {
      "inputs": [
        {
          "internalType": "uint8",
          "name": "plan",
          "type": "uint8"
        }
      ],
      "name": "getPlanInfo",
      "outputs": [
        {
          "internalType": "uint256",
          "name": "time",
          "type": "uint256"
        },
        {
          "internalType": "uint256",
          "name": "percent",
          "type": "uint256"
        }
      ],
      "stateMutability": "view",
      "type": "function"
    },
    {
      "inputs": [
        {
          "internalType": "address",
          "name": "userAddress",
          "type": "address"
        }
      ],
      "name": "getUserDividends",
      "outputs": [
        {
          "internalType": "uint256",
          "name": "",
          "type": "uint256"
        }
      ],
      "stateMutability": "view",
      "type": "function"
    },
    {
      "inputs": [
        {
          "internalType": "address",
          "name": "userAddress",
          "type": "address"
        }
      ],
      "name": "getUserTotalWithdrawn",
      "outputs": [
        {
          "internalType": "uint256",
          "name": "",
          "type": "uint256"
        }
      ],
      "stateMutability": "view",
      "type": "function"
    },
    {
      "inputs": [
        {
          "internalType": "address",
          "name": "userAddress",
          "type": "address"
        }
      ],
      "name": "getUserCheckpoint",
      "outputs": [
        {
          "internalType": "uint256",
          "name": "",
          "type": "uint256"
        }
      ],
      "stateMutability": "view",
      "type": "function"
    },
    {
      "inputs": [
        {
          "internalType": "address",
          "name": "userAddress",
          "type": "address"
        }
      ],
      "name": "getUserReferrer",
      "outputs": [
        {
          "internalType": "address",
          "name": "",
          "type": "address"
        }
      ],
      "stateMutability": "view",
      "type": "function"
    },
    {
      "inputs": [
        {
          "internalType": "address",
          "name": "userAddress",
          "type": "address"
        }
      ],
      "name": "getUserDownlineCount",
      "outputs": [
        {
          "internalType": "uint256[5]",
          "name": "referrals",
          "type": "uint256[5]"
        }
      ],
      "stateMutability": "view",
      "type": "function"
    },
    {
      "inputs": [
        {
          "internalType": "address",
          "name": "userAddress",
          "type": "address"
        }
      ],
      "name": "getUserTotalReferrals",
      "outputs": [
        {
          "internalType": "uint256",
          "name": "",
          "type": "uint256"
        }
      ],
      "stateMutability": "view",
      "type": "function"
    },
    {
      "inputs": [
        {
          "internalType": "address",
          "name": "userAddress",
          "type": "address"
        }
      ],
      "name": "getUserReferralBonus",
      "outputs": [
        {
          "internalType": "uint256",
          "name": "",
          "type": "uint256"
        }
      ],
      "stateMutability": "view",
      "type": "function"
    },
    {
      "inputs": [
        {
          "internalType": "address",
          "name": "userAddress",
          "type": "address"
        }
      ],
      "name": "getUserReferralTotalBonus",
      "outputs": [
        {
          "internalType": "uint256",
          "name": "",
          "type": "uint256"
        }
      ],
      "stateMutability": "view",
      "type": "function"
    },
    {
      "inputs": [
        {
          "internalType": "address",
          "name": "userAddress",
          "type": "address"
        }
      ],
      "name": "getUserReferralWithdrawn",
      "outputs": [
        {
          "internalType": "uint256",
          "name": "",
          "type": "uint256"
        }
      ],
      "stateMutability": "view",
      "type": "function"
    },
    {
      "inputs": [
        {
          "internalType": "address",
          "name": "userAddress",
          "type": "address"
        }
      ],
      "name": "getUserAvailable",
      "outputs": [
        {
          "internalType": "uint256",
          "name": "",
          "type": "uint256"
        }
      ],
      "stateMutability": "view",
      "type": "function"
    },
    {
      "inputs": [
        {
          "internalType": "address",
          "name": "userAddress",
          "type": "address"
        }
      ],
      "name": "getUserAmountOfDeposits",
      "outputs": [
        {
          "internalType": "uint256",
          "name": "",
          "type": "uint256"
        }
      ],
      "stateMutability": "view",
      "type": "function"
    },
    {
      "inputs": [
        {
          "internalType": "address",
          "name": "userAddress",
          "type": "address"
        }
      ],
      "name": "getUserTotalDeposits",
      "outputs": [
        {
          "internalType": "uint256",
          "name": "amount",
          "type": "uint256"
        }
      ],
      "stateMutability": "view",
      "type": "function"
    },
    {
      "inputs": [
        {
          "internalType": "address",
          "name": "userAddress",
          "type": "address"
        },
        {
          "internalType": "uint256",
          "name": "index",
          "type": "uint256"
        }
      ],
      "name": "getUserDepositInfo",
      "outputs": [
        {
          "internalType": "uint8",
          "name": "plan",
          "type": "uint8"
        },
        {
          "internalType": "uint256",
          "name": "percent",
          "type": "uint256"
        },
        {
          "internalType": "uint256",
          "name": "amount",
          "type": "uint256"
        },
        {
          "internalType": "uint256",
          "name": "start",
          "type": "uint256"
        },
        {
          "internalType": "uint256",
          "name": "finish",
          "type": "uint256"
        }
      ],
      "stateMutability": "view",
      "type": "function"
    },
    {
      "inputs": [],
      "name": "getSiteInfo",
      "outputs": [
        {
          "internalType": "uint256",
          "name": "_totalInvested",
          "type": "uint256"
        },
        {
          "internalType": "uint256",
          "name": "_totalBonus",
          "type": "uint256"
        }
      ],
      "stateMutability": "view",
      "type": "function"
    },
    {
      "inputs": [
        {
          "internalType": "address",
          "name": "userAddress",
          "type": "address"
        }
      ],
      "name": "getUserInfo",
      "outputs": [
        {
          "internalType": "uint256",
          "name": "totalDeposit",
          "type": "uint256"
        },
        {
          "internalType": "uint256",
          "name": "totalWithdrawn",
          "type": "uint256"
        },
        {
          "internalType": "uint256",
          "name": "totalReferrals",
          "type": "uint256"
        }
      ],
      "stateMutability": "view",
      "type": "function"
    }
  ],
  "bytecode": "0x60806040526040518060a00160405280604660ff168152602001601e60ff168152602001600f60ff168152602001600a60ff168152602001600560ff168152506000906005620000519291906200025d565b503480156200005f57600080fd5b5060405162002d9338038062002d9383398181016040528101906200008591906200033d565b62000096816200024a60201b60201c565b15620000a157600080fd5b80600560016101000a81548173ffffffffffffffffffffffffffffffffffffffff021916908373ffffffffffffffffffffffffffffffffffffffff16021790555060036040518060400160405280612710815260200160148152509080600181540180825580915050600190039060005260206000209060020201600090919091909150600082015181600001556020820151816001015550506003604051806040016040528060288152602001602881525090806001815401808255809150506001900390600052602060002090600202016000909190919091506000820151816000015560208201518160010155505060036040518060400160405280603c8152602001602381525090806001815401808255809150506001900390600052602060002090600202016000909190919091506000820151816000015560208201518160010155505060036040518060400160405280605a8152602001601e815250908060018154018082558091505060019003906000526020600020906002020160009091909190915060008201518160000155602082015181600101555050506200036f565b600080823b905060008111915050919050565b828054828255906000526020600020908101928215620002a1579160200282015b82811115620002a0578251829060ff169055916020019190600101906200027e565b5b509050620002b09190620002b4565b5090565b5b80821115620002cf576000816000905550600101620002b5565b5090565b600080fd5b600073ffffffffffffffffffffffffffffffffffffffff82169050919050565b60006200030582620002d8565b9050919050565b6200031781620002f8565b81146200032357600080fd5b50565b60008151905062000337816200030c565b92915050565b600060208284031215620003565762000355620002d3565b5b6000620003668482850162000326565b91505092915050565b612a14806200037f6000396000f3fe6080604052600436106101c25760003560e01c8063600d20ce116100f7578063a8aeb6c211610095578063e262113e11610064578063e262113e146106c9578063e85abe09146106f4578063fb4cb32b14610731578063fbfcb2791461076e576101c2565b8063a8aeb6c2146105d0578063aecaa6341461060d578063c0806b031461064b578063d7ffca911461068c576101c2565b80636bb18556116100d15780636bb18556146105005780636f9fb98a1461053d5780637e3abeea1461056857806397c0262a146105a5576101c2565b8063600d20ce146104595780636386c1c71461049657806369b11dd5146104d5576101c2565b80633ccfd60b116101645780634ce870531161013e5780634ce87053146103bb5780635216aeec146103e757806357fc86b414610412578063581c5ae61461043d576101c2565b80633ccfd60b1461033c57806348c372031461035357806348d44bd114610390576101c2565b8063153ab9df116101a0578063153ab9df1461026c5780631f2698ab146102a957806332bc298c146102d457806336144c9a146102ff576101c2565b806301c234a8146101c757806303a93c0c146101f2578063040a772e1461022f575b600080fd5b3480156101d357600080fd5b506101dc6107ab565b6040516101e99190612091565b60405180910390f35b3480156101fe57600080fd5b506102196004803603810190610214919061210f565b6107b1565b60405161022691906121e7565b60405180910390f35b34801561023b57600080fd5b506102566004803603810190610251919061210f565b61083e565b6040516102639190612091565b60405180910390f35b34801561027857600080fd5b50610293600480360381019061028e919061210f565b610af8565b6040516102a09190612091565b60405180910390f35b3480156102b557600080fd5b506102be610b24565b6040516102cb919061221d565b60405180910390f35b3480156102e057600080fd5b506102e9610b37565b6040516102f69190612091565b60405180910390f35b34801561030b57600080fd5b506103266004803603810190610321919061210f565b610b3e565b6040516103339190612247565b60405180910390f35b34801561034857600080fd5b50610351610baa565b005b34801561035f57600080fd5b5061037a6004803603810190610375919061210f565b610d85565b6040516103879190612091565b60405180910390f35b34801561039c57600080fd5b506103a5610dd1565b6040516103b29190612091565b60405180910390f35b3480156103c757600080fd5b506103d0610dd6565b6040516103de929190612262565b60405180910390f35b3480156103f357600080fd5b506103fc610de7565b6040516104099190612091565b60405180910390f35b34801561041e57600080fd5b50610427610ded565b6040516104349190612091565b60405180910390f35b610457600480360381019061045291906122c4565b610df2565b005b34801561046557600080fd5b50610480600480360381019061047b9190612330565b61177b565b60405161048d9190612091565b60405180910390f35b3480156104a257600080fd5b506104bd60048036038101906104b8919061210f565b61179f565b6040516104cc9392919061235d565b60405180910390f35b3480156104e157600080fd5b506104ea6117cc565b6040516104f79190612091565b60405180910390f35b34801561050c57600080fd5b506105276004803603810190610522919061210f565b6117d2565b6040516105349190612091565b60405180910390f35b34801561054957600080fd5b50610552611872565b60405161055f9190612091565b60405180910390f35b34801561057457600080fd5b5061058f600480360381019061058a919061210f565b61187a565b60405161059c9190612091565b60405180910390f35b3480156105b157600080fd5b506105ba611962565b6040516105c791906123b5565b60405180910390f35b3480156105dc57600080fd5b506105f760048036038101906105f2919061210f565b611988565b6040516106049190612091565b60405180910390f35b34801561061957600080fd5b50610634600480360381019061062f91906123d0565b6119d7565b604051610642929190612262565b60405180910390f35b34801561065757600080fd5b50610672600480360381019061066d91906123fd565b611a35565b60405161068395949392919061244c565b60405180910390f35b34801561069857600080fd5b506106b360048036038101906106ae919061210f565b611bed565b6040516106c09190612091565b60405180910390f35b3480156106d557600080fd5b506106de611c39565b6040516106eb9190612091565b60405180910390f35b34801561070057600080fd5b5061071b6004803603810190610716919061210f565b611c44565b6040516107289190612091565b60405180910390f35b34801561073d57600080fd5b506107586004803603810190610753919061210f565b611c90565b6040516107659190612091565b60405180910390f35b34801561077a57600080fd5b506107956004803603810190610790919061210f565b611cdc565b6040516107a29190612091565b60405180910390f35b6103e881565b6107b9612056565b600460008373ffffffffffffffffffffffffffffffffffffffff1673ffffffffffffffffffffffffffffffffffffffff168152602001908152602001600020600301600580602002604051908101604052809291908260058015610832576020028201915b81548152602001906001019080831161081e575b50505050509050919050565b600080600460008473ffffffffffffffffffffffffffffffffffffffff1673ffffffffffffffffffffffffffffffffffffffff1681526020019081526020016000209050600080600090505b8260000180549050811015610aed5760006109466109106201518060038760000186815481106108bd576108bc61249f565b5b906000526020600020906003020160000160009054906101000a900460ff1660ff16815481106108f0576108ef61249f565b5b906000526020600020906002020160000154611ec090919063ffffffff16565b8560000184815481106109265761092561249f565b5b906000526020600020906003020160020154611f3b90919063ffffffff16565b90508084600101541015610ad9576000610a006103e86109f260038860000187815481106109775761097661249f565b5b906000526020600020906003020160000160009054906101000a900460ff1660ff16815481106109aa576109a961249f565b5b9060005260206000209060020201600101548860000187815481106109d2576109d161249f565b5b906000526020600020906003020160010154611ec090919063ffffffff16565b611f9990919063ffffffff16565b905060008560010154866000018581548110610a1f57610a1e61249f565b5b90600052602060002090600302016002015411610a40578560010154610a69565b856000018481548110610a5657610a5561249f565b5b9060005260206000209060030201600201545b90506000428410610a7a5742610a7c565b835b905080821015610ad557610ad2610ac362015180610ab5610aa68686611ff790919063ffffffff16565b87611ec090919063ffffffff16565b611f9990919063ffffffff16565b87611f3b90919063ffffffff16565b95505b5050505b508080610ae5906124fd565b91505061088a565b508092505050919050565b6000610b1d610b068361083e565b610b0f84611c44565b611f3b90919063ffffffff16565b9050919050565b600560009054906101000a900460ff1681565b6201518081565b6000600460008373ffffffffffffffffffffffffffffffffffffffff1673ffffffffffffffffffffffffffffffffffffffff16815260200190815260200160002060020160009054906101000a900473ffffffffffffffffffffffffffffffffffffffff169050919050565b6000600460003373ffffffffffffffffffffffffffffffffffffffff1673ffffffffffffffffffffffffffffffffffffffff16815260200190815260200160002090506000610bf83361083e565b90506000610c0533611c44565b90506000811115610c305760008360080181905550610c2d8183611f3b90919063ffffffff16565b91505b60008211610c73576040517f08c379a0000000000000000000000000000000000000000000000000000000008152600401610c6a906125a3565b60405180910390fd5b600047905082811015610cc257610c938184611ff790919063ffffffff16565b8460080181905550610cb684600801548560090154611f3b90919063ffffffff16565b84600901819055508092505b428460010181905550610ce28385600a0154611f3b90919063ffffffff16565b84600a01819055503373ffffffffffffffffffffffffffffffffffffffff166108fc849081150290604051600060405180830381858888f19350505050158015610d30573d6000803e3d6000fd5b503373ffffffffffffffffffffffffffffffffffffffff167f7084f5476618d8e60b11ef0d7d3f06914655adb8793e28ff7f018d4c76d505d584604051610d779190612091565b60405180910390a250505050565b6000600460008373ffffffffffffffffffffffffffffffffffffffff1673ffffffffffffffffffffffffffffffffffffffff168152602001908152602001600020600901549050919050565b606481565b600080600154600254915091509091565b60015481565b600581565b600560009054906101000a900460ff16610eb857600560019054906101000a900473ffffffffffffffffffffffffffffffffffffffff1673ffffffffffffffffffffffffffffffffffffffff163373ffffffffffffffffffffffffffffffffffffffff161415610e7c576001600560006101000a81548160ff021916908315150217905550610eb7565b6040517f08c379a0000000000000000000000000000000000000000000000000000000008152600401610eae9061260f565b60405180910390fd5b5b66b1a2bc2ec50000341015610ecc57600080fd5b60048160ff1610610f12576040517f08c379a0000000000000000000000000000000000000000000000000000000008152600401610f099061267b565b60405180910390fd5b6000610f3c6103e8610f2e606434611ec090919063ffffffff16565b611f9990919063ffffffff16565b9050600560019054906101000a900473ffffffffffffffffffffffffffffffffffffffff1673ffffffffffffffffffffffffffffffffffffffff166108fc829081150290604051600060405180830381858888f19350505050158015610fa6573d6000803e3d6000fd5b503373ffffffffffffffffffffffffffffffffffffffff167f2899dc8c12def1caa9accb64257cf2fd9f960f21bb27a560a757eae3c2ec43c182604051610fed9190612091565b60405180910390a26000600460003373ffffffffffffffffffffffffffffffffffffffff1673ffffffffffffffffffffffffffffffffffffffff1681526020019081526020016000209050600073ffffffffffffffffffffffffffffffffffffffff168160020160009054906101000a900473ffffffffffffffffffffffffffffffffffffffff1673ffffffffffffffffffffffffffffffffffffffff16141561130b576000600460008673ffffffffffffffffffffffffffffffffffffffff1673ffffffffffffffffffffffffffffffffffffffff1681526020019081526020016000206000018054905011801561111257503373ffffffffffffffffffffffffffffffffffffffff168473ffffffffffffffffffffffffffffffffffffffff1614155b1561115b57838160020160006101000a81548173ffffffffffffffffffffffffffffffffffffffff021916908373ffffffffffffffffffffffffffffffffffffffff1602179055505b60008160020160009054906101000a900473ffffffffffffffffffffffffffffffffffffffff16905060005b600581101561130857600073ffffffffffffffffffffffffffffffffffffffff168273ffffffffffffffffffffffffffffffffffffffff16146112f05761122d6001600460008573ffffffffffffffffffffffffffffffffffffffff1673ffffffffffffffffffffffffffffffffffffffff168152602001908152602001600020600301836005811061121d5761121c61249f565b5b0154611f3b90919063ffffffff16565b600460008473ffffffffffffffffffffffffffffffffffffffff1673ffffffffffffffffffffffffffffffffffffffff16815260200190815260200160002060030182600581106112815761128061249f565b5b0181905550600460008373ffffffffffffffffffffffffffffffffffffffff1673ffffffffffffffffffffffffffffffffffffffff16815260200190815260200160002060020160009054906101000a900473ffffffffffffffffffffffffffffffffffffffff1691506112f5565b611308565b8080611300906124fd565b915050611187565b50505b600073ffffffffffffffffffffffffffffffffffffffff168160020160009054906101000a900473ffffffffffffffffffffffffffffffffffffffff1673ffffffffffffffffffffffffffffffffffffffff16146116375760008160020160009054906101000a900473ffffffffffffffffffffffffffffffffffffffff16905060005b600581101561163457600073ffffffffffffffffffffffffffffffffffffffff168273ffffffffffffffffffffffffffffffffffffffff161461161c5760006114136103e8611405600085815481106113eb576113ea61249f565b5b906000526020600020015434611ec090919063ffffffff16565b611f9990919063ffffffff16565b905061146a81600460008673ffffffffffffffffffffffffffffffffffffffff1673ffffffffffffffffffffffffffffffffffffffff16815260200190815260200160002060080154611f3b90919063ffffffff16565b600460008573ffffffffffffffffffffffffffffffffffffffff1673ffffffffffffffffffffffffffffffffffffffff1681526020019081526020016000206008018190555061150581600460008673ffffffffffffffffffffffffffffffffffffffff1673ffffffffffffffffffffffffffffffffffffffff16815260200190815260200160002060090154611f3b90919063ffffffff16565b600460008573ffffffffffffffffffffffffffffffffffffffff1673ffffffffffffffffffffffffffffffffffffffff16815260200190815260200160002060090181905550813373ffffffffffffffffffffffffffffffffffffffff168473ffffffffffffffffffffffffffffffffffffffff167fd41f7e766eebcc7ff42b11ac8691bdf864db4afc0c55e71d629d54edce460d98846040516115a99190612091565b60405180910390a4600460008473ffffffffffffffffffffffffffffffffffffffff1673ffffffffffffffffffffffffffffffffffffffff16815260200190815260200160002060020160009054906101000a900473ffffffffffffffffffffffffffffffffffffffff16925050611621565b611634565b808061162c906124fd565b91505061138f565b50505b600081600001805490501415611688574281600101819055507f9fd565cd14c3c391679eb0cad12a14dcf7534e9d3462bcb9b67a098a9bbbc24a3360405161167f9190612247565b60405180910390a15b8060000160405180606001604052808560ff16815260200134815260200142815250908060018154018082558091505060019003906000526020600020906003020160009091909190915060008201518160000160006101000a81548160ff021916908360ff1602179055506020820151816001015560408201518160020155505061171f34600154611f3b90919063ffffffff16565b6001819055503373ffffffffffffffffffffffffffffffffffffffff167f3a89eb89956dcf6537585a2372d4e629e18622cce06c2b4fee6301ae0840e241843460405161176d92919061269b565b60405180910390a250505050565b6000818154811061178b57600080fd5b906000526020600020016000915090505481565b60008060006117ad8461187a565b6117b685611c90565b6117bf86611cdc565b9250925092509193909250565b60025481565b600061186b600460008473ffffffffffffffffffffffffffffffffffffffff1673ffffffffffffffffffffffffffffffffffffffff16815260200190815260200160002060080154600460008573ffffffffffffffffffffffffffffffffffffffff1673ffffffffffffffffffffffffffffffffffffffff16815260200190815260200160002060090154611ff790919063ffffffff16565b9050919050565b600047905090565b600080600090505b600460008473ffffffffffffffffffffffffffffffffffffffff1673ffffffffffffffffffffffffffffffffffffffff1681526020019081526020016000206000018054905081101561195c57611947600460008573ffffffffffffffffffffffffffffffffffffffff1673ffffffffffffffffffffffffffffffffffffffff16815260200190815260200160002060000182815481106119265761192561249f565b5b90600052602060002090600302016001015483611f3b90919063ffffffff16565b91508080611954906124fd565b915050611882565b50919050565b600560019054906101000a900473ffffffffffffffffffffffffffffffffffffffff1681565b6000600460008373ffffffffffffffffffffffffffffffffffffffff1673ffffffffffffffffffffffffffffffffffffffff168152602001908152602001600020600001805490509050919050565b60008060038360ff16815481106119f1576119f061249f565b5b906000526020600020906002020160000154915060038360ff1681548110611a1c57611a1b61249f565b5b9060005260206000209060020201600101549050915091565b600080600080600080600460008973ffffffffffffffffffffffffffffffffffffffff1673ffffffffffffffffffffffffffffffffffffffff1681526020019081526020016000209050806000018781548110611a9557611a9461249f565b5b906000526020600020906003020160000160009054906101000a900460ff16955060038660ff1681548110611acd57611acc61249f565b5b9060005260206000209060020201600101549450806000018781548110611af757611af661249f565b5b9060005260206000209060030201600101549350806000018781548110611b2157611b2061249f565b5b9060005260206000209060030201600201549250611be0611baa620151806003846000018b81548110611b5757611b5661249f565b5b906000526020600020906003020160000160009054906101000a900460ff1660ff1681548110611b8a57611b8961249f565b5b906000526020600020906002020160000154611ec090919063ffffffff16565b826000018981548110611bc057611bbf61249f565b5b906000526020600020906003020160020154611f3b90919063ffffffff16565b9150509295509295909350565b6000600460008373ffffffffffffffffffffffffffffffffffffffff1673ffffffffffffffffffffffffffffffffffffffff168152602001908152602001600020600101549050919050565b66b1a2bc2ec5000081565b6000600460008373ffffffffffffffffffffffffffffffffffffffff1673ffffffffffffffffffffffffffffffffffffffff168152602001908152602001600020600801549050919050565b6000600460008373ffffffffffffffffffffffffffffffffffffffff1673ffffffffffffffffffffffffffffffffffffffff168152602001908152602001600020600a01549050919050565b6000600460008373ffffffffffffffffffffffffffffffffffffffff1673ffffffffffffffffffffffffffffffffffffffff168152602001908152602001600020600301600460058110611d3357611d3261249f565b5b0154600460008473ffffffffffffffffffffffffffffffffffffffff1673ffffffffffffffffffffffffffffffffffffffff168152602001908152602001600020600301600360058110611d8a57611d8961249f565b5b0154600460008573ffffffffffffffffffffffffffffffffffffffff1673ffffffffffffffffffffffffffffffffffffffff168152602001908152602001600020600301600260058110611de157611de061249f565b5b0154600460008673ffffffffffffffffffffffffffffffffffffffff1673ffffffffffffffffffffffffffffffffffffffff168152602001908152602001600020600301600160058110611e3857611e3761249f565b5b0154600460008773ffffffffffffffffffffffffffffffffffffffff1673ffffffffffffffffffffffffffffffffffffffff168152602001908152602001600020600301600060058110611e8f57611e8e61249f565b5b0154611e9b91906126c4565b611ea591906126c4565b611eaf91906126c4565b611eb991906126c4565b9050919050565b600080831415611ed35760009050611f35565b60008284611ee1919061271a565b9050828482611ef091906127a3565b14611f30576040517f08c379a0000000000000000000000000000000000000000000000000000000008152600401611f2790612846565b60405180910390fd5b809150505b92915050565b6000808284611f4a91906126c4565b905083811015611f8f576040517f08c379a0000000000000000000000000000000000000000000000000000000008152600401611f86906128b2565b60405180910390fd5b8091505092915050565b6000808211611fdd576040517f08c379a0000000000000000000000000000000000000000000000000000000008152600401611fd49061291e565b60405180910390fd5b60008284611feb91906127a3565b90508091505092915050565b60008282111561203c576040517f08c379a00000000000000000000000000000000000000000000000000000000081526004016120339061298a565b60405180910390fd5b6000828461204a91906129aa565b90508091505092915050565b6040518060a00160405280600590602082028036833780820191505090505090565b6000819050919050565b61208b81612078565b82525050565b60006020820190506120a66000830184612082565b92915050565b600080fd5b600073ffffffffffffffffffffffffffffffffffffffff82169050919050565b60006120dc826120b1565b9050919050565b6120ec816120d1565b81146120f757600080fd5b50565b600081359050612109816120e3565b92915050565b600060208284031215612125576121246120ac565b5b6000612133848285016120fa565b91505092915050565b600060059050919050565b600081905092915050565b6000819050919050565b61216581612078565b82525050565b6000612177838361215c565b60208301905092915050565b6000602082019050919050565b6121998161213c565b6121a38184612147565b92506121ae82612152565b8060005b838110156121df5781516121c6878261216b565b96506121d183612183565b9250506001810190506121b2565b505050505050565b600060a0820190506121fc6000830184612190565b92915050565b60008115159050919050565b61221781612202565b82525050565b6000602082019050612232600083018461220e565b92915050565b612241816120d1565b82525050565b600060208201905061225c6000830184612238565b92915050565b60006040820190506122776000830185612082565b6122846020830184612082565b9392505050565b600060ff82169050919050565b6122a18161228b565b81146122ac57600080fd5b50565b6000813590506122be81612298565b92915050565b600080604083850312156122db576122da6120ac565b5b60006122e9858286016120fa565b92505060206122fa858286016122af565b9150509250929050565b61230d81612078565b811461231857600080fd5b50565b60008135905061232a81612304565b92915050565b600060208284031215612346576123456120ac565b5b60006123548482850161231b565b91505092915050565b60006060820190506123726000830186612082565b61237f6020830185612082565b61238c6040830184612082565b949350505050565b600061239f826120b1565b9050919050565b6123af81612394565b82525050565b60006020820190506123ca60008301846123a6565b92915050565b6000602082840312156123e6576123e56120ac565b5b60006123f4848285016122af565b91505092915050565b60008060408385031215612414576124136120ac565b5b6000612422858286016120fa565b92505060206124338582860161231b565b9150509250929050565b6124468161228b565b82525050565b600060a082019050612461600083018861243d565b61246e6020830187612082565b61247b6040830186612082565b6124886060830185612082565b6124956080830184612082565b9695505050505050565b7f4e487b7100000000000000000000000000000000000000000000000000000000600052603260045260246000fd5b7f4e487b7100000000000000000000000000000000000000000000000000000000600052601160045260246000fd5b600061250882612078565b91507fffffffffffffffffffffffffffffffffffffffffffffffffffffffffffffffff82141561253b5761253a6124ce565b5b600182019050919050565b600082825260208201905092915050565b7f5573657220686173206e6f206469766964656e64730000000000000000000000600082015250565b600061258d601583612546565b915061259882612557565b602082019050919050565b600060208201905081810360008301526125bc81612580565b9050919050565b7f4e6f742073746172746564207965740000000000000000000000000000000000600082015250565b60006125f9600f83612546565b9150612604826125c3565b602082019050919050565b60006020820190508181036000830152612628816125ec565b9050919050565b7f496e76616c696420706c616e0000000000000000000000000000000000000000600082015250565b6000612665600c83612546565b91506126708261262f565b602082019050919050565b6000602082019050818103600083015261269481612658565b9050919050565b60006040820190506126b0600083018561243d565b6126bd6020830184612082565b9392505050565b60006126cf82612078565b91506126da83612078565b9250827fffffffffffffffffffffffffffffffffffffffffffffffffffffffffffffffff0382111561270f5761270e6124ce565b5b828201905092915050565b600061272582612078565b915061273083612078565b9250817fffffffffffffffffffffffffffffffffffffffffffffffffffffffffffffffff0483118215151615612769576127686124ce565b5b828202905092915050565b7f4e487b7100000000000000000000000000000000000000000000000000000000600052601260045260246000fd5b60006127ae82612078565b91506127b983612078565b9250826127c9576127c8612774565b5b828204905092915050565b7f536166654d6174683a206d756c7469706c69636174696f6e206f766572666c6f60008201527f7700000000000000000000000000000000000000000000000000000000000000602082015250565b6000612830602183612546565b915061283b826127d4565b604082019050919050565b6000602082019050818103600083015261285f81612823565b9050919050565b7f536166654d6174683a206164646974696f6e206f766572666c6f770000000000600082015250565b600061289c601b83612546565b91506128a782612866565b602082019050919050565b600060208201905081810360008301526128cb8161288f565b9050919050565b7f536166654d6174683a206469766973696f6e206279207a65726f000000000000600082015250565b6000612908601a83612546565b9150612913826128d2565b602082019050919050565b60006020820190508181036000830152612937816128fb565b9050919050565b7f536166654d6174683a207375627472616374696f6e206f766572666c6f770000600082015250565b6000612974601e83612546565b915061297f8261293e565b602082019050919050565b600060208201905081810360008301526129a381612967565b9050919050565b60006129b582612078565b91506129c083612078565b9250828210156129d3576129d26124ce565b5b82820390509291505056fea2646970667358221220d32ef6c516d8728b2d925815433cdee3d4753fdf6bdbad6f129244cc172aef3864736f6c63430008090033",
  "immutableReferences": {},
  "source": "/**\r\n *Submitted for verification at BscScan.com on 2021-07-11\r\n*/\r\n\r\n/*   BNBFactor - Community Experimental yield farm on Binance Smart Chain.\r\n *   The only official platform of original BNBFactor team! All other platforms with the same contract code are FAKE!\r\n *\r\n *   \r\n *      Website: https://bnbfactor.com                                      \r\n *                                                                          \r\n *      Telegram Live Support: @iwishbnbmoon                                \r\n *      Telegram Public Chat: @bnbfactor                                    \r\n *                                                                          \r\n *      E-mail: admin@bnbfactor.com                                         \r\n *   \r\n *\r\n *   [USAGE INSTRUCTION]\r\n *\r\n *   1) Connect any supported wallet\r\n *   2) Choose one of the tariff plans, enter the BNB amount (0.05 BNB minimum) using our website \"Stake\" button\r\n *   3) Wait for your earnings\r\n *   4) Withdraw earnings any time using our website \"Withdraw\" button\r\n *\r\n *   [INVESTMENT CONDITIONS]\r\n *\r\n *   - Minimal deposit: 0.05 BNB, no maximal limit\r\n *   - Total income: based on your tarrif plan (from 2% to 4% daily) \r\n *   - Earnings every moment, withdraw any time\r\n *\r\n *   [AFFILIATE PROGRAM]\r\n *\r\n *   - 5-level referral reward: 7% - 3% - 1.5% - 1% - 0.5%\r\n *\r\n *   [FUNDS DISTRIBUTION]\r\n *\r\n *   - 90% Platform main balance, using for participants payouts, affiliate program bonuses\r\n *   - 10% Advertising and promotion expenses, Support work, technical functioning, administration fee\r\n *\r\n *   Note: This is experimental community project,\r\n *   which means this project has high risks as well as high profits.\r\n *   Once contract balance drops to zero payments will stops,\r\n *   deposit at your own risk.\r\n */\r\n\r\npragma solidity ^0.8.9;\r\n\r\ncontract BNBFactor {\r\n\tusing SafeMath for uint256;\r\n\r\n\tuint256 constant public INVEST_MIN_AMOUNT = 5e16; // 0.05 bnb\r\n\tuint256[] public REFERRAL_PERCENTS = [70, 30, 15, 10, 5];\r\n\tuint256 constant public PROJECT_FEE = 100;\r\n\tuint256 constant public PERCENT_STEP = 5;\r\n\tuint256 constant public PERCENTS_DIVIDER = 1000;\r\n\tuint256 constant public TIME_STEP = 1 days;\r\n\r\n\tuint256 public totalInvested;\r\n\tuint256 public totalRefBonus;\r\n\r\n    struct Plan {\r\n        uint256 time;\r\n        uint256 percent;\r\n    }\r\n\r\n    Plan[] internal plans;\r\n\r\n\tstruct Deposit {\r\n        uint8 plan;\r\n\t\tuint256 amount;\r\n\t\tuint256 start;\r\n\t}\r\n\r\n\tstruct User {\r\n\t\tDeposit[] deposits;\r\n\t\tuint256 checkpoint;\r\n\t\taddress referrer;\r\n\t\tuint256[5] levels;\r\n\t\tuint256 bonus;\r\n\t\tuint256 totalBonus;\r\n\t\tuint256 withdrawn;\r\n\t}\r\n\r\n\tmapping (address => User) internal users;\r\n\r\n\tbool public started;\r\n\taddress payable public commissionWallet;\r\n\r\n\tevent Newbie(address user);\r\n\tevent NewDeposit(address indexed user, uint8 plan, uint256 amount);\r\n\tevent Withdrawn(address indexed user, uint256 amount);\r\n\tevent RefBonus(address indexed referrer, address indexed referral, uint256 indexed level, uint256 amount);\r\n\tevent FeePayed(address indexed user, uint256 totalAmount);\r\n\r\n\tconstructor(address payable wallet) public {\r\n\t\trequire(!isContract(wallet));\r\n\t\tcommissionWallet = wallet;\r\n\r\n        plans.push(Plan(10000, 20));\r\n        plans.push(Plan(40, 40));\r\n        plans.push(Plan(60, 35));\r\n        plans.push(Plan(90, 30));\r\n\t}\r\n\r\n\tfunction invest(address referrer, uint8 plan) public payable {\r\n\t\tif (!started) {\r\n\t\t\tif (msg.sender == commissionWallet) {\r\n\t\t\t\tstarted = true;\r\n\t\t\t} else revert(\"Not started yet\");\r\n\t\t}\r\n\r\n\t\trequire(msg.value >= INVEST_MIN_AMOUNT);\r\n        require(plan < 4, \"Invalid plan\");\r\n\r\n\t\tuint256 fee = msg.value.mul(PROJECT_FEE).div(PERCENTS_DIVIDER);\r\n\t\tcommissionWallet.transfer(fee);\r\n\t\temit FeePayed(msg.sender, fee);\r\n\r\n\t\tUser storage user = users[msg.sender];\r\n\r\n\t\tif (user.referrer == address(0)) {\r\n\t\t\tif (users[referrer].deposits.length > 0 && referrer != msg.sender) {\r\n\t\t\t\tuser.referrer = referrer;\r\n\t\t\t}\r\n\r\n\t\t\taddress upline = user.referrer;\r\n\t\t\tfor (uint256 i = 0; i < 5; i++) {\r\n\t\t\t\tif (upline != address(0)) {\r\n\t\t\t\t\tusers[upline].levels[i] = users[upline].levels[i].add(1);\r\n\t\t\t\t\tupline = users[upline].referrer;\r\n\t\t\t\t} else break;\r\n\t\t\t}\r\n\t\t}\r\n\r\n\t\tif (user.referrer != address(0)) {\r\n\t\t\taddress upline = user.referrer;\r\n\t\t\tfor (uint256 i = 0; i < 5; i++) {\r\n\t\t\t\tif (upline != address(0)) {\r\n\t\t\t\t\tuint256 amount = msg.value.mul(REFERRAL_PERCENTS[i]).div(PERCENTS_DIVIDER);\r\n\t\t\t\t\tusers[upline].bonus = users[upline].bonus.add(amount);\r\n\t\t\t\t\tusers[upline].totalBonus = users[upline].totalBonus.add(amount);\r\n\t\t\t\t\temit RefBonus(upline, msg.sender, i, amount);\r\n\t\t\t\t\tupline = users[upline].referrer;\r\n\t\t\t\t} else break;\r\n\t\t\t}\r\n\t\t}\r\n\r\n\t\tif (user.deposits.length == 0) {\r\n\t\t\tuser.checkpoint = block.timestamp;\r\n\t\t\temit Newbie(msg.sender);\r\n\t\t}\r\n\r\n\t\tuser.deposits.push(Deposit(plan, msg.value, block.timestamp));\r\n\r\n\t\ttotalInvested = totalInvested.add(msg.value);\r\n\r\n\t\temit NewDeposit(msg.sender, plan, msg.value);\r\n\t}\r\n\r\n\tfunction withdraw() public {\r\n\t\tUser storage user = users[msg.sender];\r\n\r\n\t\tuint256 totalAmount = getUserDividends(msg.sender);\r\n\r\n\t\tuint256 referralBonus = getUserReferralBonus(msg.sender);\r\n\t\tif (referralBonus > 0) {\r\n\t\t\tuser.bonus = 0;\r\n\t\t\ttotalAmount = totalAmount.add(referralBonus);\r\n\t\t}\r\n\r\n\t\trequire(totalAmount > 0, \"User has no dividends\");\r\n\r\n\t\tuint256 contractBalance = address(this).balance;\r\n\t\tif (contractBalance < totalAmount) {\r\n\t\t\tuser.bonus = totalAmount.sub(contractBalance);\r\n\t\t\tuser.totalBonus = user.totalBonus.add(user.bonus);\r\n\t\t\ttotalAmount = contractBalance;\r\n\t\t}\r\n\r\n\t\tuser.checkpoint = block.timestamp;\r\n\t\tuser.withdrawn = user.withdrawn.add(totalAmount);\r\n\r\n\t\tpayable(msg.sender).transfer(totalAmount);\r\n\r\n\t\temit Withdrawn(msg.sender, totalAmount);\r\n\t}\r\n\r\n\tfunction getContractBalance() public view returns (uint256) {\r\n\t\treturn address(this).balance;\r\n\t}\r\n\r\n\tfunction getPlanInfo(uint8 plan) public view returns(uint256 time, uint256 percent) {\r\n\t\ttime = plans[plan].time;\r\n\t\tpercent = plans[plan].percent;\r\n\t}\r\n\r\n\tfunction getUserDividends(address userAddress) public view returns (uint256) {\r\n\t\tUser storage user = users[userAddress];\r\n\r\n\t\tuint256 totalAmount;\r\n\r\n\t\tfor (uint256 i = 0; i < user.deposits.length; i++) {\r\n\t\t\tuint256 finish = user.deposits[i].start.add(plans[user.deposits[i].plan].time.mul(1 days));\r\n\t\t\tif (user.checkpoint < finish) {\r\n\t\t\t\tuint256 share = user.deposits[i].amount.mul(plans[user.deposits[i].plan].percent).div(PERCENTS_DIVIDER);\r\n\t\t\t\tuint256 from = user.deposits[i].start > user.checkpoint ? user.deposits[i].start : user.checkpoint;\r\n\t\t\t\tuint256 to = finish < block.timestamp ? finish : block.timestamp;\r\n\t\t\t\tif (from < to) {\r\n\t\t\t\t\ttotalAmount = totalAmount.add(share.mul(to.sub(from)).div(TIME_STEP));\r\n\t\t\t\t}\r\n\t\t\t}\r\n\t\t}\r\n\r\n\t\treturn totalAmount;\r\n\t}\r\n\r\n\tfunction getUserTotalWithdrawn(address userAddress) public view returns (uint256) {\r\n\t\treturn users[userAddress].withdrawn;\r\n\t}\r\n\r\n\tfunction getUserCheckpoint(address userAddress) public view returns(uint256) {\r\n\t\treturn users[userAddress].checkpoint;\r\n\t}\r\n\r\n\tfunction getUserReferrer(address userAddress) public view returns(address) {\r\n\t\treturn users[userAddress].referrer;\r\n\t}\r\n\r\n\tfunction getUserDownlineCount(address userAddress) public view returns(uint256[5] memory referrals) {\r\n\t\treturn (users[userAddress].levels);\r\n\t}\r\n\r\n\tfunction getUserTotalReferrals(address userAddress) public view returns(uint256) {\r\n\t\treturn users[userAddress].levels[0]+users[userAddress].levels[1]+users[userAddress].levels[2]+users[userAddress].levels[3]+users[userAddress].levels[4];\r\n\t}\r\n\r\n\tfunction getUserReferralBonus(address userAddress) public view returns(uint256) {\r\n\t\treturn users[userAddress].bonus;\r\n\t}\r\n\r\n\tfunction getUserReferralTotalBonus(address userAddress) public view returns(uint256) {\r\n\t\treturn users[userAddress].totalBonus;\r\n\t}\r\n\r\n\tfunction getUserReferralWithdrawn(address userAddress) public view returns(uint256) {\r\n\t\treturn users[userAddress].totalBonus.sub(users[userAddress].bonus);\r\n\t}\r\n\r\n\tfunction getUserAvailable(address userAddress) public view returns(uint256) {\r\n\t\treturn getUserReferralBonus(userAddress).add(getUserDividends(userAddress));\r\n\t}\r\n\r\n\tfunction getUserAmountOfDeposits(address userAddress) public view returns(uint256) {\r\n\t\treturn users[userAddress].deposits.length;\r\n\t}\r\n\r\n\tfunction getUserTotalDeposits(address userAddress) public view returns(uint256 amount) {\r\n\t\tfor (uint256 i = 0; i < users[userAddress].deposits.length; i++) {\r\n\t\t\tamount = amount.add(users[userAddress].deposits[i].amount);\r\n\t\t}\r\n\t}\r\n\r\n\tfunction getUserDepositInfo(address userAddress, uint256 index) public view returns(uint8 plan, uint256 percent, uint256 amount, uint256 start, uint256 finish) {\r\n\t    User storage user = users[userAddress];\r\n\r\n\t\tplan = user.deposits[index].plan;\r\n\t\tpercent = plans[plan].percent;\r\n\t\tamount = user.deposits[index].amount;\r\n\t\tstart = user.deposits[index].start;\r\n\t\tfinish = user.deposits[index].start.add(plans[user.deposits[index].plan].time.mul(1 days));\r\n\t}\r\n\r\n\tfunction getSiteInfo() public view returns(uint256 _totalInvested, uint256 _totalBonus) {\r\n\t\treturn(totalInvested, totalRefBonus);\r\n\t}\r\n\r\n\tfunction getUserInfo(address userAddress) public view returns(uint256 totalDeposit, uint256 totalWithdrawn, uint256 totalReferrals) {\r\n\t\treturn(getUserTotalDeposits(userAddress), getUserTotalWithdrawn(userAddress), getUserTotalReferrals(userAddress));\r\n\t}\r\n\r\n\tfunction isContract(address addr) internal view returns (bool) {\r\n        uint size;\r\n        assembly { size := extcodesize(addr) }\r\n        return size > 0;\r\n    }\r\n}\r\n\r\nlibrary SafeMath {\r\n\r\n    function add(uint256 a, uint256 b) internal pure returns (uint256) {\r\n        uint256 c = a + b;\r\n        require(c >= a, \"SafeMath: addition overflow\");\r\n\r\n        return c;\r\n    }\r\n\r\n    function sub(uint256 a, uint256 b) internal pure returns (uint256) {\r\n        require(b <= a, \"SafeMath: subtraction overflow\");\r\n        uint256 c = a - b;\r\n\r\n        return c;\r\n    }\r\n\r\n    function mul(uint256 a, uint256 b) internal pure returns (uint256) {\r\n        if (a == 0) {\r\n            return 0;\r\n        }\r\n\r\n        uint256 c = a * b;\r\n        require(c / a == b, \"SafeMath: multiplication overflow\");\r\n\r\n        return c;\r\n    }\r\n\r\n    function div(uint256 a, uint256 b) internal pure returns (uint256) {\r\n        require(b > 0, \"SafeMath: division by zero\");\r\n        uint256 c = a / b;\r\n\r\n        return c;\r\n    }\r\n}",
  "sourcePath": "E:\\Blockchain\\bnbfactor-fork\\contracts\\BNBFactor.sol",
  "compiler": {
    "name": "solc",
    "version": "0.8.9+commit.e5eed63a.Emscripten.clang"
  },
  "schemaVersion": "3.4.3",
  "updatedAt": "2021-10-07T13:49:28.274Z",
  "devdoc": {
    "kind": "dev",
    "methods": {},
    "version": 1
  },
  "userdoc": {
    "kind": "user",
    "methods": {},
    "version": 1
  }
}